:020000040800F2
:10000000F0200020010100083B2C00087F29000897
:10001000B52B00083117000851450008000000000A
:10002000000000000000000000000000BD300008DB
:10003000E724000800000000F52C0008F139000852
:100040001B0100081B0100081B0100081B01000820
:100050001B0100081B0100081B0100081B01000810
:100060001B0100081B0100081B0100081B01000800
:100070001B0100081B0100081B0100081B010008F0
:100080001B0100081B0100081B0100081B010008E0
:100090001B0100081B0100081B0100081B010008D0
:1000A0001B0100081B0100081B0100081B010008C0
:1000B000453E00083D3F0008214000081B010008A4
:1000C0001B0100081B0100081B0100081B010008A0
:1000D0001B01000875420008894200081B01000846
:1000E000E92400081B0100081B010008DFF80CD000
:1000F00000F004FD004800474D500008F0200020AB
:100100000648804706480047FEE7FEE7FEE7FEE7B1
:10011000FEE7FEE7FEE7FEE7FEE7FEE7E53D000857
:10012000ED00000840EA01039B0703D009E008C97D
:10013000121F08C0042AFAD203E011F8013B00F8AC
:10014000013B521EF9D27047D2B201E000F8012BF8
:10015000491EFBD270470022F6E710B513460A4647
:1001600004461946FFF7F0FF204610BD30B505469E
:100170002A460B4612F8010B13F8014B08B1A042B6
:10018000F8D01CB1002802D06D1CF1E7284630BD24
:10019000421C10F8011B0029FBD1801A7047000097
:1001A0000FB400B58DB010A909900B9000914FF0DD
:1001B000FF300A9000200C900548069005480790F3
:1001C0006A4609A80F9900F0A7FB0DB05DF814FB73
:1001D00035090008530900082DE9FF5F1D464FF05F
:1001E000FF3BD5E9014691465F464FF00008A969FB
:1001F0007F1C01988847296A824688470028F6D1E3
:10020000BAF1FF3F0CD024F4C064002E19DD600663
:1002100014D5BAF12B0F09D0BAF12D0F0ED103E08E
:10022000584604B0BDE8F09F44F48064A9697F1C7F
:1002300001988847761E8246002E02DDBAF1300F03
:1002400003D0B9F1000F26D032E0A969761E44F43C
:1002500000747F1C019888478246002E05DDBAF1A4
:10026000780F06D0BAF1580F03D0B9F1000F10D0B3
:100270001EE0B9F1000F02D0B9F1100F18D1A96931
:10028000761E24F400747F1C019888478246102053
:1002900002E0082000E00A20814609E008FB090886
:1002A000A969761E44F400747F1C01988847824631
:1002B000002E05DD4946504600F01AFB0028EDDA15
:1002C000E96901988847A00502D46FF00100A8E70A
:1002D000E00725D1600613D5600502D5C8F10000FE
:1002E00000E0404629680A1D2A600968220501D5F8
:1002F000087015E0220701D5088011E008600FE0C2
:100300002868011D29600068210502D580F8008059
:1003100006E0210702D5A0F8008001E0C0F80080C7
:1003200038467EE72DE9FF5FD2E901A74FF00008CC
:10033000916999461446DDF838B0464601988847D9
:10034000054659EA0B0005D009E0A169761C019821
:1003500088470546216A284688470028F5D1681C49
:1003600003D05FEACA7005D015E04FF0FF3004B04B
:10037000BDE8F09F2068011D2160D0F800800AE0F0
:100380005FEACA7001D108F8015BA169761C7F1E83
:10039000019888470546002F1ADD681C18D0B9F16E
:1003A000000F0DD0E81705EBD060421120F01F00C0
:1003B00059F822102A1A012090400142E0D107E0AA
:1003C000BBF1000FDCD1216A284688470028D7D02E
:1003D000E16901988847BBF1000F07D1002E05DDC8
:1003E0005FEACA7002D1002188F80010A068B84204
:1003F00003DDBBF1000F03D017B16FF00100B6E7CA
:100400003046B4E72DE9FE4F804681EA0300C00F75
:100410000C46009021F0004123F00045B8EB0200AB
:10042000A94105D24046214690461C460B4602464D
:1004300023F00040104347D0270DC7F30A00C3F351
:100440000A510290401A019040286BDAC3F313005E
:1004500040F4801B0098924620B10023D2EB030A9F
:1004600063EB0B0B01985946C0F14002504600F077
:100470000EFA06460D4650465946019A00F026FAF5
:1004800010EB08006141002487EA115284EAE77307
:100490001A4340D0009A62B3019A012A4FEA0752E8
:1004A00015DC001B61EB02014FF0004202EA07522B
:1004B000CDE90042001C41F5801132462B4600F088
:1004C0009FFA03B0BDE8F08F40462146F9E7001BD4
:1004D00061EB0201001C41F5801300185B412018FC
:1004E000A2F5001747EB030140EAD570B6196D413C
:1004F00011E06D084FEA360645EAC0754FEA07522B
:10050000001B61EB0201001C41F5801149084FEA14
:1005100030000019514132462B4603B0BDE8F04F80
:1005200000F05FBA0098012240000023D0EB0202E5
:1005300063EBE073009821464FEAE074B8EB0000EB
:1005400061EB0401E9E783F000435BE781F00041E0
:1005500058E72DE9FE4F81EA030404F0004421F03E
:10056000004100944FF0000B23F0004350EA0104D7
:100570005ED052EA03045BD0C3F30A54C1F30A55B8
:100580002C44A4F2F3340194A0FB0254C1F31301F0
:1005900041F48011C3F3130343F4801301FB0244BD
:1005A00000FB034E840A970A44EA815447EA8357C2
:1005B000A4FB076802958D0A05FB07854FEA932C7B
:1005C00004FB0C542705029D4FEA065847EA1637EC
:1005D000B5EB08056EEB070C870E920E47EA811704
:1005E00042EA8312A7FB0201B6EB0B0164EB0004A5
:1005F0002B0D43EA0C335E1844EB1C50DA4651468F
:10060000E7FB0201C5F313044FEA0B3343EA14532B
:100610004FEA0432019C43EA0603A4F10C0402945D
:10062000009CCDE900B400F0EBF903B0BDE8F08F19
:1006300000200146F9E72DE9F04D81EA030404F0BA
:10064000004B21F0004514464FF0000A23F0004112
:1006500050EA050220D054EA01021DD0C5F30A5722
:100660000246C5F31303C1F31300C1F30A5640F465
:10067000801543F48013A7EB0608101BD64608F23A
:10068000FD3873EB050002D308F1010801E0921870
:100690005B41B8F1000F03DA00200146BDE8F08DA0
:1006A00000204FF48011064684460EE0171B73EBC2
:1006B000050705D3121B63EB050306434CEA010C47
:1006C00049084FEA300092185B4150EA0107EDD12A
:1006D00052EA030012D082EA040083EA05010843CB
:1006E00005D0101BAB4106D20122002306E00022F8
:1006F0004FF0004302E06FF0010253101AEB0600C6
:100700004CEB085110EB0A0041EB0B01BDE8F04D3A
:1007100000F067B996230022114600F034B90EB5F7
:10072000C10F80EAE0700844CA07002140F2334359
:100730008DE80E000A460B4600F062F903B000BDDA
:100740000EB540F2334102910021CDE900110A4675
:100750000B4600F055F903B000BDC1F30A5210B5C5
:10076000C1F3130140F2FF3341F480119A4201DAE0
:10077000002010BD40F233439A42A2F2334203DC20
:10078000524200F093F810BD904010BD00F00042BE
:1007900030F000400AD0C10D01F56071C0F31600C1
:1007A00042EA0151C2084007114370470020014648
:1007B000704701F0004330B421F0004150EA0102DB
:1007C00006D00A0DA2F56072C1F31301002A02DC03
:1007D00030BC00207047440F44EAC104C100E01857
:1007E00030BC00EBC25000F0C5B80000002801DBAF
:1007F000C0F10040002901DBC1F10041884270478F
:1008000030B50B46014600202022012409E021FAE0
:1008100002F59D4205D303FA02F5491B04FA02F5DD
:100820002844151EA2F10102F1DC30BD2DE9F05F74
:100830000546002092469B4688460646814640244F
:100840001BE0284641464746224600F02FF8534613
:100850005A46C01A914110D311461846224600F05C
:1008600016F82D1A67EB01084F4622460120002199
:1008700000F00DF817EB00094E41201EA4F1010411
:10088000DFDC484631462A464346BDE8F09F202A31
:1008900004DB203A00FA02F1002070479140C2F1D7
:1008A000200320FA03F3194390407047202A04DB09
:1008B000203A21FA02F00021704721FA02F3D040D9
:1008C000C2F120029140084319467047202A06DBF6
:1008D000CB17203A41FA02F043EAE07306E041FA0E
:1008E00002F3D040C2F120029140084319467047FC
:1008F0003A2800D2303820F02002412A01D3A2F158
:100900003700884201D34FF0FF307047026811442E
:100910001378016018467047D16004495161044959
:10092000116200211161114600F000B90D090008A3
:10093000210B0008426842B1016811F8013B23B164
:10094000521EC0E90012184670470121C160881E7E
:10095000704742685AB1C368016843B983688B42E3
:1009600005D0491E521CC0E90012002070474FF00C
:10097000FF3070470029A8BF7047401C490008BFDE
:1009800020F00100704710B4B0FA80FC00FA0CF0BF
:1009900050EA010404BF10BC704749B1CCF12004F7
:1009A00021FA04F411FA0CF118BF01212143084384
:1009B000A3EB0C01CB1D4FEA00614FEA102042BFB0
:1009C000002010BC704700EBC35010440029A4BFA6
:1009D00010BC7047401C490008BF20F0010010BC4B
:1009E000704710B5141E73F1000408DA401C41F181
:1009F000000192185B411A4301D120F0010010BDA3
:100A00002DE9F04D92469B4611B1B1FA81F202E018
:100A1000B0FA80F220329046FFF739FF04460F46C5
:100A200040EA0A0041EA0B0153465A46084313D0F4
:100A3000114653EA010019D0C8F140025046FFF7B1
:100A400035FF05460E46504659464246FFF71FFF02
:100A5000084305D0012004E020463946BDE8F08D6A
:100A60000020054346EAE0762C4337430A986305A5
:100A7000E40AA0EB08000022FD0A44EA47540A30C9
:100A800002D500200146E9E7010510196941DDE9B9
:100A9000084500196941BDE8F04DA2E7C1F30A52CB
:100AA000C1F3130140F2FF3341F480119A4202DA9C
:100AB00000200146704740F233439A42A2F233428B
:100AC00002DC5242FFF7F2BEFFF7E1BE30B5041E72
:100AD00071F1000404DB4FF00044404264EB01017B
:100AE000141E73F1000405DB1C464FF00043524214
:100AF00063EB0403994208BF904230BD064C074D9A
:100B000006E0E06840F0010394E8070098471034DD
:100B1000AC42F6D3FFF7EEFA58710008787100087E
:100B2000C0B24FF4F05100F097B900002DE9F34F37
:100B30008BB04FF0000801F10C000C464FF0010B98
:100B400046460DF1080A019062690121019890471B
:100B5000051E2DD0252D2CD0216A8847C0B1626991
:100B6000012101989047216A88470028F7D1411E4A
:100B700062690198904700E0761CA1690B9888474C
:100B8000216A88470028F7D1E1690B988847DBE79D
:100B9000A1690B9888470746A84201D1761CD3E784
:100BA000E1690B9888477F1C02D1B8F1000F6FD024
:100BB00046E1002762693D463946019890472A2858
:100BC00004D162690121019890470125DFF88492E0
:100BD0006269012101989047A0F130010A290AD2E7
:100BE0004F45E5DC07EB870100EB4107303FDFD4E1
:100BF00045F01005ECE7E90601D46FF000476C28DA
:100C00000AD04C2814D0682815D06A280DD0742832
:100C10001CD07A281AD01DE0626901210198904702
:100C20006C2802D045F0040514E045F002050DE003
:100C300045F020050AE06269012101989047682883
:100C400002D045F0080505E045F400656269012120
:100C500001989047C4E9015765283DD019DC582810
:100C60007AD00CDC452837D004DC252826D0412852
:100C700031D131E046282FD047282CD12CE05B28F9
:100C800077D0612828D063287CD0642823D15AE00B
:100C9000D0E06F2848D008DC66281DD067281BD01C
:100CA000692821D06E2816D127E0702845D07328F6
:100CB00068D0752847D078280DD14DE0A1690B98F0
:100CC0008847054625283FF469AFE1690B988847B6
:100CD0006D1C3FF46AAFB3E023466A466FF0010033
:100CE0000B99AFF300809EE045F040006060A807DC
:100CF00023464FF0000236D43EE0E8077FF447AFCA
:100D00002068011D21600068290501D506701BE7D8
:100D1000290701D5068017E7A90703D5F117C0E910
:100D2000006111E706600FE745F040006060A8072A
:100D300023464FF0080216D41EE040F60E0125EAC5
:100D40000100606016E045F040006060A80723469F
:100D50004FF00A0207D40FE045F040006060A8079A
:100D600008D5234610226FF001000B99AFF30080E5
:100D700059E007E0234610226FF001000B99FFF7BE
:100D80002BFA50E04FF000094F464B46632802D043
:100D90005B2806D040E0E80601D40120A0600127CE
:100DA0003AE062690121019890475E2805D14FF031
:100DB00001096269494601989047216939B90021C2
:100DC0000A46534643F82120491C0829FADBB0B3F0
:100DD000216969B9C11700EBD16253110AEB830194
:100DE00022F01F02821A01200B68904003430B601F
:100DF00062690121019890475D28E8D1B9F1000F9F
:100E000009D00020514651F82020D24341F820203B
:100E1000401C0828F7DB02AB224600976FF0010068
:100E20000B99FFF77FFA00280CDA401C08D1BBF1C0
:100E3000000F05D04FF0FF300DB0BDE8F08FFFE799
:100E40004046F9E7E90701D108F1010806444FF0EF
:100E5000000B79E6CCCCCC0C7F2801D9002208E02D
:100E6000064A02EB5002C007127800D1120902F0C4
:100E70000F0201209040084070470000846D000878
:100E800021B1826842F00102826003E0826822F0B0
:100E9000010282607047000000B585B000F07CF868
:100EA00000F04EF80020009001208DF804008DF82D
:100EB00005004FF4602002900020039002208DF87E
:100EC00010006946174800F095F803230122062117
:100ED000144800F0B7F8032302220721114800F05C
:100EE000B1F801210F4800F01FF801210D48FFF76C
:100EF000C7FF0C4800F002F900BF0A4800F070F884
:100F00000028FAD1074800F009F900BF054800F0B1
:100F10005DF80028FAD10121024800F0F4F805B08C
:100F200000BD00000024014021B1826842F48072BB
:100F3000826003E0826822F4807282607047000061
:100F400000B58BB0114801F0FFF91148009011482D
:100F50000190002002900220039000200490802045
:100F60000590400006908000079020200890000225
:100F7000099000200A906946044801F08BFA01218B
:100F8000024801F0D5F90BB000BD00000800024096
:100F90004C2401401400002008B501211C2001F060
:100FA000DFFE0121084601F0ABFE0121480201F0FD
:100FB000D7FEC020ADF8000000208DF80300694680
:100FC000014801F0EDFB08BD00080140014600208A
:100FD0008A6802F004020AB1012000E00020704794
:100FE000014600208A6802F008020AB1012000E0F0
:100FF0000020704730B502460020002350680F4C97
:1010000020400D790C6844EA052420435060906824
:101010000B4C2040D1E902542C434D7944EA45045D
:1010200020439060D06A20F470000C7C641EE4B20F
:10103000234340EA0350D06230BD0000FFFEF0FFC2
:10104000FDF7F1FFF0B504460D4600200021092D03
:1010500011DDE068A5F10A0606EB4607072606FA49
:1010600007F18843A5F10A0606EB460603FA06F1E6
:101070000843E0600CE0206905EB4507072606FA07
:1010800007F1884305EB450603FA06F108432061A2
:10109000072A0FDA606B561E06EB86071F2606FA34
:1010A00007F18843561E06EB860605FA06F108434B
:1010B000606322E00D2A0FDA206BD61F06EB86074D
:1010C0001F2606FA07F18843D61F06EB860605FAA7
:1010D00006F10843206310E0E06AA2F10D0606EB7A
:1010E00086071F2606FA07F18843A2F10D0606EBD4
:1010F000860605FA06F10843E062F0BD816841F01A
:1011000008018160704721B1826842F4A0028260C8
:1011100003E0826822F4A00282607047816841F097
:1011200004018160704700002DE9F04786B08146D8
:101130008A4600F0CAF8642003F03CFF01F0D0FCBE
:10114000712001F09DFC01F001FD012001F06CFC1B
:101150008DF81000012001F067FC8DF811000120CE
:1011600001F062FC8DF81200012001F05DFC8DF8A9
:101170001300012001F058FC8DF81400002001F04C
:1011800053FC8DF8150001F0C7FC00249DF81100F8
:10119000204304029DF81200204304029DF813002E
:1011A000044324112046FFF7BAFA074600221E4BDB
:1011B000FFF7CFF9054600221C4BFFF73CFA00224F
:1011C0001A4BCDE90201FFF736FACAE90001002403
:1011D0009DF81300204304029DF8140020430402EC
:1011E0009DF815000443C4F313042046FFF797FA53
:1011F000054600220E4BFFF7ACF9074600220B4BC9
:10120000FFF719FA0022094BCDE90001FFF713FAA5
:101210000022084BCDE90201FFF795F9C9E9000169
:1012200006B0BDE8F0870000000059400000904083
:10123000000069400000494010B501F051FC7020E9
:1012400001F01EFC01F082FCE12001F019FC01F02C
:101250007DFC082001F014FC01F078FC002001F076
:101260000FFC01F073FC01F057FC4FF4FA7003F02F
:10127000A1FE24E000F060F8642003F09BFE7020E3
:1012800001F0FEFB01F062FCE12001F0F9FB01F04E
:101290005DFC082001F0F4FB01F058FC002001F097
:1012A000EFFB01F053FC01F037FC601CC4B24FF4BB
:1012B000FA7003F07FFE0A2C01DB012010BD00F064
:1012C0002EF80128D6D00020F8E710B501F008FC70
:1012D000702001F0D5FB01F039FCAC2001F0D0FB0F
:1012E00001F034FC332001F0CBFB01F02FFC002097
:1012F00001F0C6FB01F02AFC01F00EFC10BD10B598
:1013000001F0EEFB712001F0BBFB01F01FFC00209F
:1013100001F08AFB044601F0FFFB204610BD10B52A
:101320000024FFF7ECFF044604F06800082801D110
:10133000002010BD0120FCE710B501F0D1FB7020AA
:1013400001F09EFB01F002FCBA2001F099FB01F0D4
:10135000FDFB01F0E1FB10BD2DE9F04107460C4615
:101360000026002509E036023919491B491E88B2BA
:1013700000F008F80644681CC5B2A542F3DB30460D
:10138000BDE8F08170B50446002601F0A9FB2546B2
:10139000E11704EB11610912A02202EB4101C8B26E
:1013A00001F06EFB01F0D2FBE11704EB11610912B1
:1013B000A4EB0121C8B201F063FB01F0C7FB01F00F
:1013C0008FFBA12001F05CFB01F0C0FB002001F0CD
:1013D0002BFB064601F0A0FB304670BD2DE9F04125
:1013E00005460E461746002409E0E20026FA02F2FE
:1013F000D1B22A1990B200F006F8601CC4B2BC4207
:10140000F3DBBDE8F08170B504460E4601F068FBE1
:101410002546E11704EB11610912A02202EB4101FC
:10142000C8B201F02DFB01F091FBE11704EB116153
:101430000912A4EB0121C8B201F022FB01F086FBE6
:10144000304601F01DFB01F081FB01F065FB0A2035
:1014500003F0B0FD70BD0000F0B587B002A904A88C
:10146000FFF762FEDDE90401FFF7A3F90D4908600B
:10147000DDE90201FFF79DF90A4948604868FFF776
:1014800085F904460D4607490868FFF77FF90646C7
:1014900032460B4604A0CDE9004503F019FE07B023
:1014A000F0BD0000E01C00200D0ACEC2B6C8A3BAF1
:1014B000252E316627430D0ACAAAB6C8A3BA252E1F
:1014C000316625250D0A000010B523480068234920
:1014D0000968884219D020480168891C20A003F0BF
:1014E000F7FDC82003F066FD00F0F2FF1A4800681F
:1014F00000F5FA7018490860084600681D49096837
:10150000884202D11C48144908601C4800681C49E4
:10151000096888421FD0194801681AA003F0D8FD55
:1015200032211648006800F0BFFC10B100201A49B3
:1015300008701248006800F5FA7010490860084603
:10154000006816490968884202D115480B490860AD
:10155000C82003F02FFD10BD2C0000202800002023
:10156000BDD3CAD5B5C4CAFDBEDD3A0D0A25730D7B
:101570000A00000030000020580900203800002038
:1015800034000020B7A2B2BCB5C4CAFDBEDD3A0D1E
:101590000A25730D0A000000240000203C000020F2
:1015A0001C13002030B5ADF55F7D0446802142A8B4
:1015B000FEF7D1FD1EA220A142A803F067F880210A
:1015C00022A8FEF7C8FD26A319A228A122A803F08D
:1015D0005DF8802162A8FEF7BEFD21A014A314A22D
:1015E00024A1009062A803F051F862A8FEF7D0FD94
:1015F0000546202028A302AA2946009062A803F0ED
:10160000CFFD02A822AB42AA2CA10090204603F0F5
:101610003DF842A930A003F05BFD22A932A003F0FF
:1016200057FD02A934A003F053FD0DF55F7D30BDD9
:101630005A4844503030310025737C7365637572AD
:10164000656D6F64653D332C7369676E6D65746895
:101650006F643D686D6163736861317C00000000F8
:1016600061315873664C556E6A777900257326256B
:1016700073000000636C69656E744964257364656A
:10168000766963654E616D65257370726F6475630D
:10169000744B6579257300003031346462653161C3
:1016A0006333353730623364393063313732303247
:1016B00031616330386531360000000041542B4DF4
:1016C000434F4E4649473D222573222C2225732243
:1016D0002C22257322000000BFCDBBA7B6CB494406
:1016E000A3BA25730D0A0000D3C320BBA720C3FBF8
:1016F000A3BA25730D0A0000C3DC20202020C2EB12
:10170000A3BA25730D0A000010B5012001F09CFD5D
:1017100010BD10B5012001F097FD102001F094FDDF
:10172000B42003F047FC01F073FA0446204610BDD4
:1017300000BFFEE710B5322107A000F09FFC40B9C2
:1017400008A10B48FEF712FD08B1002010BD0120D2
:10175000FCE70220FAE7000041542B434741545470
:101760003F0000002B43474154543A203100000011
:101770005801002010B586B03224002020490860AE
:101780004FF480611F48FEF7E6FC1FA003F0CEFC7B
:101790002AE0642003F00EFC1EA11A48FEF7E6FCC6
:1017A00000281DD017491EA003F092FC1DA115486A
:1017B000FEF7DCFC10B1012006B010BD05A804A99D
:1017C00003AB02AACDE9001018A10E48FEF7E8FC11
:1017D000059800901AA002A90EC903F079FC08E050
:1017E00021461FA003F074FC201EA4F10101CCB21D
:1017F000CFD100BF002C01DC0120DDE70020DBE7BA
:10180000200000205801002041542B4349465352E8
:101810000D0A000041542B4349465352000000007A
:10182000257300004552524F52000000252A5B5E8E
:101830000A5D25642E25642E25642E256400000093
:101840000D0A43415431BBF1C8A1B5C449503A25F2
:10185000642E25642E25642E25640D0A00000000E8
:101860002564200010B5142107A000F007FC40B942
:1018700008A10C48FEF77AFC08B1002010BD012039
:10188000FCE70220FAE7000041542B4350494E3F49
:10189000000000002B4350494E3A20524541445924
:1018A000000000005801002010B5FEB0052179A00D
:1018B00000F0E4FB052178A000F0E0FB18B979A066
:1018C00003F006FC05E07CA003F002FC01207EB0E2
:1018D00010BDFFF7C7FF20B17CA003F0F9FB022089
:1018E000F5E781A003F0F4FB00F05AFA0446214624
:1018F00081A003F0EDFB002C05DB102C03DC83A0A2
:1019000003F0E6FB0CE0102C05DD1F2C03DC88A0A7
:1019100003F0DEFB04E08AA003F0DAFB0320D6E745
:10192000FFF708FF18B98BA003F0D2FB04E08EA0EC
:1019300003F0CEFB0420CAE7142191A000F09EFB27
:1019400018B994A003F0C4FB04E096A003F0C0FB18
:101950000520BCE7322197A000F090FB18B998A0B1
:1019600003F0B6FB04E09BA003F0B2FB0620AEE759
:10197000FFF700FF20B19CA003F0AAFB0720A6E719
:1019800001A8FFF70FFE322101A800F077FB18B97C
:1019900099A003F09DFB04E09CA003F099FB0820B4
:1019A00095E740F25B739EA2AAA101A802F06EFE29
:1019B000322101A800F062FB002826D1322419E070
:1019C000642003F0F7FAA8A1A948FEF7CFFB18B1ED
:1019D000A8A003F07DFB11E0AAA1A548FEF7C6FB75
:1019E00020B1AAA003F074FB092070E72146ABA048
:1019F00003F06EFB201EA4F10104E1D100BF4CB93D
:101A0000A7A003F065FB092061E7A9A003F060FB34
:101A100009205CE73221AAA000F030FB002827D182
:101A2000322419E0642003F0C5FAAAA19048FEF719
:101A30009DFB18B1A9A003F04BFB11E091A18C48CC
:101A4000FEF794FB20B1ABA003F042FB0A203EE777
:101A5000214692A003F03CFB201EA4F10104E1D139
:101A600000BF002C09DCA9A003F032FB0A202EE7FE
:101A7000AEA003F02DFB0A2029E70120B149087030
:101A80000020B14908604FF480617948FEF763FB9C
:101A900000201CE74154000041542B434950534857
:101AA00055540000B9D8B1D5D2C6B6AFB3A1BEB0B7
:101AB000B3C9B9A60D0A0000B9D8B1D5D2C6B6AF20
:101AC000B3A1BEB0CAA7B0DC0D0A000053494DBF98
:101AD000A8CEB4B2E5C8EBBBF2B2E5C8EBD3D0CE2A
:101AE000CACCE20D0A00000053494DBFA8D2D1B2C2
:101AF000E5BAC30D0A000000B5B1C7B0D0C5BAC57C
:101B0000D6CAC1BFA3BA25640D0A0000D0C5BAC5A4
:101B1000D6CAC1BFBDCFC8F52CC9E8B1B8BFC9C4CA
:101B2000DCB7C7D5FDB3A3B9A4D7F70D0A000000F1
:101B3000D0C5BAC5D6CAC1BFC1BCBAC30D0A000060
:101B4000B6C1C8A1D0C5BAC5D6CAC1BFB3F6B4ED37
:101B50000D0A0000D2D1B3C9B9A6B8BDD7C5CDF81A
:101B6000C2E70D0A0000000053494DBFA8B2BBBF39
:101B7000C9D3C3BBF2D5DFC7B7B7D10D0A00000088
:101B800041542B435354543D22222C22222C2222F6
:101B900000000000C9E8D6C341504EB3C9B9A60D34
:101BA0000A000000C9E8D6C341504ECAA7B0DC0DF8
:101BB0000A00000041542B434949435200000000F1
:101BC000BCA4BBEED2C6B6AFB3A1BEB0B3C9B9A672
:101BD0000D0A0000BCA4BBEED2C6B6AFB3A1BEB026
:101BE000CAA7B0DC0D0A0000CEDEB7A8BBF1C8A1C1
:101BF00049500D0A00000000C1ACBDD3B2CECAFDF1
:101C0000C5E4D6C3B3C9B9A60D0A0000C1ACBDD3A3
:101C1000B2CECAFDC5E4D6C3CAA7B0DC0D0A000027
:101C200061315873664C556E6A77792E696F742DE1
:101C300061732D6D7174742E636E2D7368616E67A0
:101C40006861692E616C6979756E63732E636F6D5F
:101C50000000000041542B4D495053544152543D13
:101C6000222573222C256400434F4E4E45435400D9
:101C7000580100200D0ABDA8C1A2544350B3C9B9F0
:101C8000A60D0A00434C4F53454400000D0ABDA861
:101C9000C1A2544350B9D8B1D50D0A002564200023
:101CA0000D0ABDA8C1A2544350B3ACCAB10D0A007D
:101CB000BDA8C1A2544350CAA7B0DC0D0A00000061
:101CC00041542B4D434F4E4E4543543D302C3630FE
:101CD00030000000434F4E4E41434B000D0AB0A26E
:101CE000C0EFB7FECEF1C6F7C1ACBDD3B3C9B9A63C
:101CF0000D0A00000D0AB0A2C0EFB7FECEF1C6F784
:101D0000C1ACBDD3B9D8B1D50D0A00000D0AB0A23F
:101D1000C0EFB7FECEF1C6F7C1ACBDD3C3FCC1EE78
:101D2000B2BBCFECD3A60D0A00000000B0A2C0EFFA
:101D3000B7FECEF1C6F7C1ACBDD3CAA7B0DC0D0A61
:101D40000000000024000020200000200A480B4969
:101D50000860084600680A4908600A480A4908609D
:101D60000A480B490860084600680A4908600A48A2
:101D70000A49086070470000580900202800002028
:101D80002C00002028110020300000201C1300200F
:101D90003400002038000020EC1A00203C00002015
:101DA00008B5142106A000F069F930B96A4606A109
:101DB0000848FEF7F5F9009808BD4FF0FF30FBE743
:101DC00041542B4353510000252A5B5E205D25645E
:101DD000000000005801002010B514241CA003F0DE
:101DE00077F900F035F900BF012202211D4800F00B
:101DF000C1FD4FF4FA7003F0DDF80022022119480A
:101E000000F0B8FD18A003F063F911E01DA120480F
:101E1000FEF7ACF920B11E491EA003F059F90CE001
:101E2000214620A003F054F94FF47A7003F0C2F871
:101E3000201EA4F101014CB2E8D100BF002C01DC4E
:101E40001424D1E7FFF782FF08A003F041F910BD89
:101E5000B8B4CEBB4169723732345547C4A3BFE929
:101E60000D0A000000080140B5C8B4FD4169723791
:101E700032345547B3F5CABCBBAFCDEAB3C90D0A7E
:101E800000000000534D53205245414459000000CA
:101E9000580100200D0ABDD3CAD5CAFDBEDD3A0DDA
:101EA0000A257300256420002DE9F04106460C4602
:101EB000002501202D49087000202D4908604FF4AD
:101EC00080612C48FEF747F9304603F02FF913E004
:101ED0000A2003F06FF828A12648FEF747F900B161
:101EE0000EE027A12348FEF741F908B1012507E0DC
:101EF000214625A003F0ECF8201EA4F10104E7D14F
:101F000000BF002C00DC022514240DE00A2003F0A1
:101F100051F819A11748FEF729F907461BA13846C1
:101F2000FEF724F900B103E0201EA4F10104EDD175
:101F300000BF642003F03EF80E4916A003F0C8F875
:101F400025B1294619A003F0C3F802E01FA003F051
:101F5000BFF8002005490870054908604FF480610A
:101F60000448FEF7F8F82846BDE8F0812500002077
:101F7000200000205801002050554241434B0000F2
:101F80004552524F52000000256420002B4D5355FE
:101F9000423A00000D0ABDD3CADCBBD8D3A6B5C4F3
:101FA000CAFDBEDD3A0D0A25730000000D0ACAFD08
:101FB000BEDDB7A2B2BCCAA7B0DC0D0A4572726F13
:101FC00072C0E0D0CD3A25640D0A00000D0ACAFDAA
:101FD000BEDDB7A2B2BCB3C9B9A60D0A00000000AD
:101FE00070B5FEB004460D462B4622460FA101A84F
:101FF00002F04CFB01A8FEF7CBF80646324601A9D9
:1020000010480068FEF78EF80E48006800F5FA7078
:102010000C490860084600680B490968884202D1EB
:102020000A48084908607EB070BD000041542B4D3D
:102030005055423D222573222C312C302C22257301
:10204000220D0A00340000203C0000201C13002058
:1020500008B50121042000F083FE0220ADF8000045
:1020600003208DF8020010208DF803006946024815
:1020700000F096FB08BD00000008014070B5054661
:102080000C460020194908604FF480611848FEF79B
:1020900062F8294617A003F049F8294617A003F073
:1020A00017F813E0642002F085FF19A11048FEF72D
:1020B0005DF800B10EE017A10D48FEF757F808B122
:1020C000012070BD214615A003F002F8201EA4F1E6
:1020D0000104E7D100BF064911A002F0F9FF002C6E
:1020E00001DC0220EDE70020EBE7000020000020EB
:1020F0005801002025730D0A000000000D0AB7A248
:10210000CBCDC3FCC1EE3A0D0A25730D0A000000C9
:102110004F4B00004552524F5200000025642000F2
:102120000D0ABDD3CAD5CAFDBEDD3A0D0A2573001E
:1021300008B50121042000F013FE4FF4C050ADF8A3
:10214000000048208DF803006946024800F028FB93
:1021500008BD0000000801402DE9F04F85B0174888
:10216000008804900498FEF7EBFA80464FF0663240
:10217000134BFEF7EEF90022124BCDE90001FEF7FA
:102180005AFA0646104A114BFEF7DDF904460022C2
:102190000F4BFEF7DEF90C4A0E4BCDE90201FEF7BC
:1021A0004AFA8246FEF7D9FA0B49888108468189A6
:1021B0000AA002F08DFF05B0BDE8F08F14000020EA
:1021C00066660A400000B0409A9999999999D93F5A
:1021D00000409F409999F93FE01C0020B6FED1F5E0
:1021E000BBAFCCBCA3BA256470706D0D0A000000B3
:1021F0001FB5FF20FFF7C6F804465A2C3FD05A21DE
:10220000FF20FFF700F900203C49087001203C49FD
:1022100008700A203B4908702820487023208870E5
:1022200041F2883088804FF47A70C8803348017852
:102230001820FFF7E8F8324801781420FFF7E3F898
:10224000304801780020FFF7DEF82E48417804205E
:10225000FFF7D9F82B4881780820FFF7D4F82948F0
:10226000818802220C20FFF7B9F82648C188022293
:102270001020FFF7B3F824A002F02AFF27E018206F
:10228000FFF780F81D4908701420FFF77BF81C4900
:1022900008700020FFF776F81A4908700420FFF74D
:1022A00071F8184948700820FFF76CF815498870D4
:1022B00002210C20FFF750F81249888002211020DB
:1022C000FFF74AF80F49C88013A002F001FF0D483C
:1022D00080880C49C9880B4A92780A4B5B78CDE913
:1022E0000032CDE902100748037805480278034818
:1022F00001780E4802F0ECFE1FBD000047000020F0
:102300004600002048000020B5DAD2BBB4CEC6F4A7
:10231000B6AFA3A10D0A0000B7C7B5DAD2BBB4CEE1
:10232000C6F4B6AFA3A10D0A000000001C6F0008A0
:1023300021B1026842F00102026004E002684FF637
:10234000FE731A400260704701684FF6FE7211403A
:1023500001600021016041608160C1604B49884299
:1023600008D14A490839496841F00F01474A083AFB
:1023700051608AE045491431884208D143490839FF
:10238000496841F0F001414A083A51607DE03F4917
:102390002831884208D13D490839496841F47061C3
:1023A0003A4A083A516070E038493C31884208D1D5
:1023B00036490839496841F47041344A083A516055
:1023C00063E032495031884208D1304908394968C0
:1023D00041F470212D4A083A516056E02B4964318E
:1023E000884208D129490839496841F47001274ACF
:1023F000083A516049E025497831884208D123499B
:102400000839496841F07061204A083A51603CE05F
:102410001F49884206D1011F096841F00F01021FC0
:10242000116032E01A491431884208D11849091F55
:10243000096841F0F001164A121F116025E01449A5
:102440002831884208D11249091F096841F4706196
:102450000F4A121F116018E00D493C31884208D123
:102460000B49091F096841F47041094A121F1160A4
:102470000BE007495031884207D10549091F096817
:1024800041F47021024A121F116070470800024097
:102490000804024010B50022026847F6F0739A4320
:1024A0000C6A8B6823430C6923434C6923438C6972
:1024B0002343CC6923434C6A23438C6A23431A4346
:1024C0000260CB6843600B6883604B68C36010BDDB
:1024D00010B500F0FBFB01F003FB00F037FF08B183
:1024E00001F0F2F910BD704710B54FF4006000F034
:1024F00075F858B14FF4006000F06AF80C480078A5
:1025000008B900F00BFF0BA002F0E2FD4FF4805081
:1025100000F064F858B14FF4805000F059F80448C6
:10252000007808B100F0FAFE07A002F0D1FD10BD5E
:1025300045000020C6F0CABCB5E3BCECB2E2D2FD57
:10254000BDC50D0A00000000CDA3D6B9B5E3BCECB3
:10255000B2E2D2FDBDC50D0A000000000EB501219A
:10256000084600F0FDFB0B21002000F0F9F84FF4C5
:102570000060019000208DF808000C208DF8090003
:1025800001208DF80A0001A800F03CF80C21002081
:1025900000F0E6F84FF48050019000208DF808001C
:1025A0000C208DF8090001208DF80A0001A800F028
:1025B00029F828208DF8000000208DF801008DF802
:1025C000020001208DF80300684600F03DFB0EBDBF
:1025D00001490860704700001404014001460020D2
:1025E0000022074B1B6803EA0102054B14331B68EA
:1025F0000B4013B10AB1012000E000207047000039
:1026000000040140002123498279002A3AD00A4679
:10261000126803689A430B461A600A1D1268036821
:102620009A430B1D1A60027911440A6803681A4321
:102630000A60184A0832126803689A43154B083337
:102640001A601A1D126803689A43124B0C331A6001
:102650004279102A0ED11A1F126803681A430D4BD3
:1026600008331A601A1D126803681A43094B0C33A9
:102670001A600DE00749427911440A6803681A4359
:102680000A6005E0027911440A6803689A430A6007
:1026900070470000000401402DE9F043EBB01449FD
:1026A0008868FEF773F804460D4611494868FEF73E
:1026B0006DF806460F460E490868FEF767F8804633
:1026C0000B460B4880890A49C9894246CDE9006713
:1026D000CDE90245CDE90410064907A801F0D6FF6F
:1026E00007A905A0FFF77CFC6BB0BDE8F0830000F4
:1026F000E01C0020786F00082F7379732F61315828
:1027000073664C556E6A77792F5A48445030303191
:102710002F7468696E672F6576656E742F70726F9F
:1027200070657274792F706F7374000005490968C1
:1027300021F01001034A116011460968014311603C
:10274000704700000020024001460020034A106844
:1027500000F038000843106070470000002002407D
:1027600030B500228B071C0F0F2303FA04F20B4B2A
:102770008C1053F824309343084C8D1044F82530C6
:1027800023468C1053F824308C07240F00FA04F4ED
:102790002343024C8D1044F8253030BD0800014021
:1027A0002DE9F041024600250026002000230024E8
:1027B000002791F803C00CF00F0591F803C00CF04E
:1027C000100CBCF1000F03D091F802C04CEA0505D3
:1027D00091F800C0BCF1000F31D0146800202BE04C
:1027E0004FF0010C0CFA00F3B1F800C00CEA03063C
:1027F0009E4220D183004FF00F0C0CFA03F7BC432C
:1028000005FA03FC4CEA040491F803C0BCF1280F5C
:1028100006D14FF0010C0CFA00FCC2F814C00AE01B
:1028200091F803C0BCF1480F05D14FF0010C0CFA30
:1028300000FCC2F810C0401C0828D1D31460B1F8C5
:1028400000C0BCF1FF0F34DD546800202EE000F121
:10285000080C4FF0010808FA0CF3B1F800C00CEABC
:1028600003069E4221D183004FF00F0C0CFA03F7B0
:10287000BC4305FA03FC4CEA040491F803C0BCF124
:10288000280F05D100F1080C08FA0CF8C2F81480E2
:1028900091F803C0BCF1480F07D100F1080C4FF0CC
:1028A000010808FA0CF8C2F81080401C0828CED3A2
:1028B0005460BDE8F0810000F0B50A460023002412
:1028C0000021002500F00046B6F1004F02D11D4E58
:1028D000F16901E01B4E7168C0F3034583B200F457
:1028E0004016B6F5401F08D121F07061154E76688C
:1028F00026F07066134F7E6012E000F48016B6F585
:10290000801F06D1032606FA05F4A14341F0706149
:1029100006E0460D360103FA06F6B14341F0706158
:1029200022B1460D360103FA06F6314300F00046A7
:10293000B6F1004F02D1034EF16101E0014E71602A
:10294000F0BD0000000001400246002093680B40EB
:102950000BB1012000E00020704702460020D36840
:102960000B400BB1012000E000207047416170472F
:10297000016170470AB1016100E04161704700BF29
:10298000FEE7000010B500200A49086000F084FB53
:1029900000200949C1F89C01022002F018FB012027
:1029A00004490860022002F012FB00200249C1F82D
:1029B000980110BD988121420080214208B5012173
:1029C000082000F0CDF9C020ADF8000010208DF8EF
:1029D000030003208DF8020069460448FFF7E0FE7B
:1029E000C0210248FFF7C4FF08BD0000000C0140F1
:1029F00010B500200A49086000F04EFB012009498B
:102A0000C1F89C01022002F0E2FA012004490860AA
:102A1000022002F0DCFA00200249C1F8980110BD42
:102A2000988121420080214270B50546002400F0C3
:102A300025FB002616E000200F490860022002F066
:102A4000C6FA01200D49C1F898016006040E0A4833
:102A50007C38006808B1601CC4B2012002F0B7FAEB
:102A6000701CC6B2082EE6DB15B9FFF7C1FF01E006
:102A7000FFF788FF204670BD9881214200802142E7
:102A800070B5044600F008FB0020134908600025DB
:102A90001EE0E00920B101200F49091D086003E094
:102AA00000200D49091D08606006040E022002F096
:102AB0008EFA012008490860022002F088FA0020FE
:102AC0000649C1F89801022002F081FA681CC5B2DB
:102AD000082DDEDB70BD000098812142008021427C
:102AE00010B500F0D9FA0120094908600949C1F878
:102AF0009801042002F06BFA0020054908600420C8
:102B000002F065FA00200349C1F8980110BD0000E9
:102B10009C8121420080214210B500F0BDFA0020C6
:102B2000084908600849C1F89C01042002F04FFAE6
:102B30000120044908600449C1F89C01042002F006
:102B400046FA10BD988121420080214210B5002430
:102B500000F094FA01200E49086002F038FA0120D2
:102B60000C49C1F8980102F032FA07E0601CC4B2C7
:102B7000FA2C03DDFFF7D0FF012010BD0448803898
:102B800000680028F2D10249091F086000BFF4E77D
:102B90009C8121420080214210B504463CB90121AC
:102BA0000D2000F0DDF801210148FFF785FE10BD82
:102BB0000002300000BFFEE710B500200649087093
:102BC000FFF7B6FA4FF400610448FFF7BDFE10B1FD
:102BD000034800F08BFB10BD4500002000080140B9
:102BE00098FEFFFF08B50121082000F0B9F84FF466
:102BF0007040ADF8000010208DF8030003208DF820
:102C0000020069460148FFF7CBFD08BD000C0140FA
:102C100070B5FFF765FF4720FFF732FFFFF796FF1C
:102C20000120FFF701FF04460020FFF7FDFE0546E7
:102C3000FFF772FF45EA042070BD704710B54FF4EE
:102C4000A06000F039F810BD70B5002100230F22FC
:102C5000C47804B3154C246804F4E064C4F5E0645B
:102C6000210AC1F10403CA40447804FA03F18478CC
:102C70001440214309010E4C0678A155047804F054
:102C80001F050124AC4005786D11AD0005F1E0256C
:102C9000C5F8004109E0047804F01F050124AC40A8
:102CA000044D0678761145F8264070BD0CED00E025
:102CB00000E400E080E100E002490143024A1160C3
:102CC000704700000000FA050CED00E010B505A10A
:102CD00006480068801CFDF749FA10B1002004493D
:102CE000087010BD434C4F53454400002C00002099
:102CF00024000020704710B500F07CFE10BD0000DD
:102D000029B1064A52690243044B5A6104E0034A5E
:102D100052698243014B5A61704700000010024023
:102D200029B1064AD2690243044BDA6104E0034A3E
:102D3000D2698243014BDA61704700000010024003
:102D400029B1064A12690243044B1A6104E0034A9E
:102D500012698243014B1A61704700000010024063
:102D600029B1064A92690243044B9A6104E0034A7E
:102D700092698243014B9A61704700000010024043
:102D800029B1064AD2680243044BDA6004E0034AE0
:102D9000D2688243014BDA607047000000100240A5
:102DA00010B500F02FF84FF4803000F0EDF800F08F
:102DB00049F90446012C24D14FF4E011000400F03D
:102DC00027F9002000F0D4F8A00200F003F9002059
:102DD00000F00CF90220FFF7B7FC1020FFF7A6FC6B
:102DE000012000F00FF900BF392000F09BF8002807
:102DF000FAD0022000F01AF900BF00F0B1F808285C
:102E0000FBD110BD0F48006840F001000D4908607B
:102E1000084640680C4908400A494860084600686E
:102E20000A490840074908600846006820F48020E5
:102E300008600846406820F4FE0048604FF41F0018
:102E400088607047001002400000FFF8FFFFF6FEA8
:102E500030B500210022002400232D4D6D6805F0BF
:102E60000C0121B1042905D0082923D105E0294D01
:102E7000056022E0274D05601FE0254D6D6805F4D3
:102E80007012234D6D6805F48034022505EB9242E3
:102E90001CB9214D554305600BE01D4D6D6805F4CF
:102EA00000351DB11C4D5543056002E0194D5543D9
:102EB000056002E0174D056000BF00BF144D6D684E
:102EC00005F0F0010909154D6B5C0568DD404560B2
:102ED0000F4D6D6805F4E061090A104D6B5C4568A3
:102EE000DD4085600A4D6D6805F46051C90A0B4DDF
:102EF0006B5C4568DD40C560054D6D6805F440417B
:102F0000890B074D6B5CC568B5FBF3F5056130BDFA
:102F10000010024000127A0000093D00000000206D
:102F20001000002010B501460022002300204A11A5
:102F3000012A02D1094C236806E0022A02D1074C7B
:102F4000236A01E0054C636A01F01F0201249440EA
:102F50001C400CB1012000E0002010BD0010024018
:102F60000248406800F00C0070470000001002406A
:102F700001460020034A506820F0F00008435060EA
:102F800070470000001002401149096821F48031A7
:102F90000F4A11601146096821F480211160B0F5D3
:102FA000803F03D0B0F5802F0ED106E008490968B4
:102FB00041F48031064A116007E00549096841F48F
:102FC000A021034A116000E000BF00BF704700006D
:102FD0000010024001460020034A506820F4E060DF
:102FE0000843506070470000001002400146002076
:102FF000034A506820F4605040EAC10050607047B6
:10300000001002400149086670470000000042427B
:1030100002460020044B586820F47C1042EA010369
:103020001843014B586070470010024001460020D1
:10303000034A506820F003000843506070470000C6
:103040000010024038B5002000900024002500BF89
:103050003120FFF767FF05460098401C009000985C
:10306000B0F5A06F01D0002DF2D03120FFF75AFF4C
:1030700008B1012400E00024204638BD08B58020B6
:10308000ADF8000048208DF8030069460148FFF7BD
:1030900087FB08BD000C014008B58020ADF800009A
:1030A00003208DF8020010208DF8030069460248C5
:1030B000FFF776FB08BD0000000C014070470000E0
:1030C00010B52048007810B300201E490870FEF7A4
:1030D000C3F900F0CBF8FFF73FF801F08FFF00F0E5
:1030E000BBFA1948007890B9012080F3138800BF1B
:1030F00000BF1648006800F4E06015490843001D51
:1031000012490860BFF34F8F00BF00BFFEE71148B0
:103110000078A8B100200F4908700F480078401CC3
:103120000D490870084600780C490978884207DB89
:103130000020094908700448007808B1FFF7ACFA8C
:1031400010BD000018000020240000200CED00E05D
:103150000000FA0519000020500000204600002061
:1031600010B500F001F810BD0CB5002001900090E2
:103170003348006840F480303149086000BF30486F
:10318000006800F4003000900198401C0190009805
:1031900018B90198B0F5A06FF1D12948006800F482
:1031A000003010B10120009001E000200090009854
:1031B000012843D12348006840F0100021490860ED
:1031C0000846006820F0030008600846006840F0E8
:1031D000020008601A48406819494860084640687B
:1031E00048600846406840F480604860084640688F
:1031F00020F47C1048600846406840F4E8104860BD
:103200000846006840F08070086000BF0C48006805
:1032100000F000700028F9D00948406820F0030051
:10322000074948600846406840F00200486000BF17
:103230000348406800F00C000828F9D10CBD0000DC
:10324000001002400020024010B50446FFF748FC81
:103250004620FFF715FCFFF779FC2046FFF710FC2E
:10326000FFF774FCFFF758FC10BD00002DE9F84F84
:10327000144840880090009901EB411101EB410096
:10328000FDF74DFA804600220F4BFDF7D4F90646B4
:1032900000220E4BFDF75AF9044600220C4BFDF7B5
:1032A000B1F88246FDF785FA0A4988608868FDF71B
:1032B0006DFA044622460B4607A001F009FFBDE85F
:1032C000F88F0000140000200000B04000C05840FB
:1032D00000003E40E01C0020CDC1C8C0CAAAB6C84C
:1032E000A3BA252E316625250D0A000010B5044627
:1032F00040F6EC7060434FF4B47190FBF1F0054977
:1033000008600121044800F0D1FE0021024800F0CD
:10331000F3FE10BD400000200008004010B5002062
:10332000074908604FF470410648FFF721FB002170
:10333000054800F0BBFE0021034800F0DDFE10BD93
:1033400040000020000C01400008004010B500249F
:1033500065A16C480068801CFCF708FF40B1601C48
:10336000C4B2694908700121002000F017FB0FE08A
:1033700066A164480068801CFCF7F8FE40B1601C40
:10338000C4B20120604908700021084600F006FB25
:1033900065A15C480068801CFCF7E8FE48B1601C31
:1033A000C4B20120584908700121084600F0F6FA1D
:1033B0000EE064A153480068801CFCF7D7FE38B1CA
:1033C000601CC4B2012050490870002100F0E6FAE8
:1033D00063A14C480068801CFCF7C8FE48B1601C23
:1033E000C4B20120484908700121022000F0D6FA39
:1033F0000FE064A143480068801CFCF7B7FE40B1B1
:10340000601CC4B20120404908700021022000F075
:10341000C5FA65A13B480068801CFCF7A7FE48B1CF
:10342000601CC4B20120384908700121042000F05A
:10343000B5FA0FE063A133480068801CFCF796FEE4
:1034400040B1601CC4B201202F4908700021042043
:1034500000F0A4FA62A12B480068801CFCF786FEED
:1034600058B1601CC4B20120644908702649087034
:103470004FF46160FFF73AFF11E061A12148006855
:10348000801CFCF773FE50B1601CC4B26348FFF7A8
:103490002DFF01201C49087000205849087060A1C8
:1034A00018480068801CFCF761FE50B1601CC4B273
:1034B000012015490870084601781820FDF7A3FF80
:1034C00010E05EA10F480068801CFCF74FFE48B179
:1034D000601CC4B200200C4908700846017818200E
:1034E000FDF791FF204610BD22706172616D73225D
:1034F0003A7B2248656174537769746368223A3174
:103500007D0000002C000020470000202270617226
:10351000616D73223A7B22486561745377697463E5
:1035200068223A307D00000022706172616D732262
:103530003A7B2248756D69646966696564223A312F
:103540007D00000022706172616D73223A7B224817
:10355000756D69646966696564223A307D000000B2
:1035600022706172616D73223A7B225761746572B9
:103570004F75746C6574537769746368223A317D52
:103580000000000022706172616D73223A7B225745
:10359000617465724F75746C657453776974636890
:1035A000223A307D0000000022706172616D73224A
:1035B0003A7B22506F776572537769746368223A59
:1035C000317D000022706172616D73223A7B22505E
:1035D0006F776572537769746368223A307D0000B3
:1035E00022706172616D73223A7B22576F746B5344
:1035F0007769746368223A317D000000450000203D
:1036000022706172616D73223A7B22576F746B5323
:103610007769746368223A307D000000F0F1FFFFA3
:1036200022706172616D73223A7B225377697463F1
:10363000684D6F6465223A317D000000227061722E
:10364000616D73223A7B225377697463684D6F64AE
:1036500065223A307D00000038B5754800780028B2
:1036600074D174490868FDF791F8044672480078EF
:1036700022460B46009071A001F02AFD6E490878A1
:10368000FDF748F804466B4801682046FDF7AEF8A0
:1036900004D80121002000F081F903E00021084650
:1036A00000F07CF963494868FDF770F80446624809
:1036B000407822460B46009066A001F009FD5E4965
:1036C0004878FDF727F804465A4841682046FDF738
:1036D0008DF804D80121084600F060F903E00021CC
:1036E000012000F05BF953498868FDF74FF8044664
:1036F0005148807822460B4600905CA001F0E8FC1F
:103700004D498878FDF706F804464A488168204606
:10371000FDF76CF804D80121022000F03FF903E026
:103720000021022000F03AF94348C28841488189CB
:1037300054A001F0CDFC3F4880893F49C9888842A8
:1037400005DB0121042000F029F904E024E0002138
:10375000042000F023F9384882883648C1894FA0F8
:1037600001F0B6FC3348C0893349898888420ADBB6
:103770005048007880B901204E4908704FF46160CC
:10378000FFF7B4FD08E04B48007828B10020494914
:1037900008704948FFF7AAFD01214848FFF7DDF806
:1037A0004749097888421FD102214448FFF7D5F8DC
:1037B00043494978884217D14FF480713F48FFF759
:1037C000CCF83F49897888420ED14FF400713B48CC
:1037D000FFF7C3F83A49C978884205D138480079DB
:1037E00034490978884221D03648007808B100F081
:1037F0006BF801213148FFF7B0F831490870022118
:103800002E48FFF7AAF82E4948704FF480712B48D4
:10381000FFF7A3F82A4988704FF400712748FFF793
:103820009CF82749C87023480078087138BD00000B
:1038300047000020E01C0020480000200D0ACEC2F6
:10384000B6C8E3D0D6B53A20252E3166202D2025E6
:10385000640D0A00CAAAB6C8E3D0D6B53A20252E10
:103860003166202D2025640D0A000000CDC1C8C09E
:10387000E3D0D6B53A20252E3166202D2025640DC3
:103880000A000000B6FED1F5BBAFCCBCE3D0D6B584
:103890003A202564202D2025640D0A00B9E2D5D5F3
:1038A000C7BFB6C8E3D0D6B53A202564202D202561
:1038B000640D0A0045000020F0F1FFFF000C0140FC
:1038C0005100002024000020F0B5E9B04FF4007151
:1038D0001348FFF742F804464FF480711048FFF791
:1038E0003CF8054602210E48FFF737F8064601214D
:1038F0000B48FFF732F807460A4800780A4909786A
:1039000033463A46CDE90051CDE90240074905A8C2
:1039100000F0BCFE05A906A0FEF762FB69B0F0BD91
:10392000000C0140470000204500002064700008A2
:103930002F7379732F61315873664C556E6A77799E
:103940002F5A4844503030312F7468696E672F65A4
:1039500076656E742F70726F70657274792F706FE8
:103960007374000008B501210820FFF7F9F940F24F
:103970000330ADF8000010208DF8030003208DF80F
:10398000020069460448FEF70BFF40F2033102488B
:10399000FEF7ECFF08BD0000000C014070B50546C5
:1039A0000C4635B1012D0AD0022D0ED0042D1AD1AE
:1039B00012E0224601210D48FEF7DCFF14E022460A
:1039C00002210A48FEF7D6FF0EE022464FF480712E
:1039D0000648FEF7CFFF07E022464FF40071034888
:1039E000FEF7C8FF00E000BF00BF70BD000C014043
:1039F0007047000000B5E9B00E48C0880D498988BD
:103A00000C4A92780B4B5B78CDE90032CDE902107D
:103A10000848037808A2154905A800F037FE05A953
:103A200013A001F055FB322105A8FEF73DFA69B05D
:103A300000BD0000480000202F7379732F613158BA
:103A400073664C556E6A77792F5A4844503030313E
:103A50002F7468696E672F6576656E742F70726F4C
:103A600070657274792F706F73740000C46D0008F4
:103A7000B7A2B2BCB5C4CAFDBEDD3A0D0A25730DAE
:103A80000A00000030B5B3B004460D46234606A236
:103A9000124901A8009500F0F9FD322101A8FEF7B6
:103AA00003FA33B030BD00002F7379732F613158A2
:103AB00073664C556E6A77792F5A484450303031CE
:103AC0002F7468696E672F6576656E742F70726FDC
:103AD00070657274792F706F73740000BC6E00088B
:103AE00038B5002463A16A480068801CFCF73EFBDF
:103AF00000281ED001245FA165480068801CFCF7E7
:103B000035FB05466A4663A12846FCF749FB644934
:103B100000980870084601780020FDF774FC6048A2
:103B2000017860A001F0D4FA5D48017861A0FFF748
:103B3000A9FF66A156480068801CFCF717FB002807
:103B40001ED0022461A152480068801CFCF70EFBC5
:103B500005466A464FA12846FCF722FB50490098CB
:103B60004870084641780420FDF74DFC4C484178E8
:103B70005EA001F0ADFA4A48417860A0FFF782FFED
:103B800065A143480068801CFCF7F0FA00281ED0AD
:103B9000032461A13E480068801CFCF7E7FA054653
:103BA0006A463CA12846FCF7FBFA3D49009888701C
:103BB000084681780820FDF726FC394881785EA008
:103BC00001F086FA364881785FA0FFF75BFF65A1B8
:103BD0002F480068801CFCF7C9FA00281FD0042475
:103BE00060A12B480068801CFCF7C0FA05466A46B5
:103BF00028A12846FCF7D4FA29490098888008466D
:103C0000818802220C20FDF7E9FB254881885CA011
:103C100001F05EFA224881885DA0FFF733FF62A1C0
:103C20001B480068801CFCF7A1FA00281FD005245F
:103C30005DA117480068801CFCF798FA05466A46A3
:103C400014A12846FCF7ACFA15490098C88008462C
:103C5000C18802221020FDF7C1FB1148C18858A07D
:103C600001F036FA0E48C18859A0FFF70BFF204635
:103C700038BD000022456E7654656D705F4C6F77DD
:103C80005F5468726573686F6C64223A00000000CC
:103C90002C000020252A5B5E3A5D3A256400000076
:103CA00048000020B5CDCEC2E3D0D6B53A20256479
:103CB0000D0A0000456E7654656D705F4C6F775F3E
:103CC0005468726573686F6C6400000022456E76FC
:103CD00048756D69646974795F4C6F775F54687279
:103CE0006573686F6C64223A00000000B5CDCAAA03
:103CF000E3D0D6B53A2025640D0A0000456E76481B
:103D0000756D69646974795F4C6F775F546872652B
:103D100073686F6C6400000022536F696C48756DA6
:103D200069646974795F4C6F775F54687265736812
:103D30006F6C64223A000000CDC1C8C0E3D0D6B594
:103D40003A2025640D0A0000536F696C48756D694F
:103D5000646974795F4C6F775F5468726573686FDC
:103D60006C640000224C696768744C75785F4D6123
:103D7000785F5468726573686F6C64223A00000063
:103D8000B9E2D5D5E3D0D6B53A2025640D0A0000B6
:103D90004C696768744C75785F4D61785F546872E0
:103DA0006573686F6C64000022434F325F4D617829
:103DB0005F5468726573686F6C64223A000000009B
:103DC000434F32E3D0D6B53A2025640D0A000000F7
:103DD000434F325F4D61785F5468726573686F6CF2
:103DE0006400000010B51348006840F0010011495C
:103DF000086008464068104908400E494860084677
:103E000000680E4908400B4908600846006820F425
:103E1000802008600846406820F4FE0048604FF4A7
:103E20001F008860FFF79CF94FF0006004490860AC
:103E300010BD0000001002400000FFF8FFFFF6FE7A
:103E400008ED00E010B50121880700F03BF990B3C0
:103E500019481A4902681A480068801CFCF762F980
:103E600015480088000A1649096808701248007849
:103E70001349096848701248006800F5FA70104943
:103E80000860084600680F490968884202D10E4858
:103E90000B49086000200849086000214FF080406D
:103EA00000F004F900214FF0804000F025F90121D5
:103EB000880700F0F8F810BD20000020580100200D
:103EC0002800002030000020580900207FB505465A
:103ED0000C464FF4A060FEF7EFFE01210846FEF706
:103EE0001FFFADF80850ADF804400020ADF8060003
:103EF000ADF80A0001A94FF0804000F0FFF8012161
:103F0000880700F0D0F801221146900700F0EBF886
:103F100000214FF0804000F0C9F81C208DF800000F
:103F200001208DF8010000208DF8020001208DF89D
:103F300003006846FEF788FE7FBD000010B5012132
:103F4000174800F0BFF850B30121154800F0ABF856
:103F500020211448FEF701FDC0F10100C4B2224641
:103F600020211048FEF706FD0F480078401C0E493E
:103F70000870084600780A2811DB012008700B49F8
:103F800008700B480078401C094908700846007802
:103F9000062804DB0020087001200649087010BDC7
:103FA00000040040000C01401A000020180000200E
:103FB0001B000020190000203EB505460C460121DB
:103FC0000220FEF7ADFEADF80450ADF80040002031
:103FD000ADF80200ADF806006946074800F08EF81B
:103FE00001221146044800F07EF80121024800F049
:103FF0005DF800F003F83EBD0004004008B51D2048
:104000008DF8000001208DF8010003208DF80200DA
:1040100001208DF803006846FEF716FE08BD00007B
:1040200010B50121054800F04DF828B101210348E1
:1040300000F039F800F0B4F810BD000000080040AE
:104040003EB505460C4601210420FEF769FEADF899
:104050000450ADF800400020ADF80200ADF80600B5
:104060006946074800F04AF801221146044800F06A
:104070003AF80021024800F019F800F003F83EBDBC
:104080000008004008B51E208DF8000001208DF8C2
:10409000010000208DF8020001208DF80300684621
:1040A000FEF7D2FD08BDCA430282704721B10288E3
:1040B00042F00102028004E002884FF6FE731A40CB
:1040C0000280704730B50246002000230024158A84
:1040D00005EA0103958905EA010413B10CB1012039
:1040E00000E0002030BD1AB183890B43838102E0D8
:1040F00083898B43838170478184704700220288C3
:104100001D4B98420ED01D4B98420BD0B0F1804F02
:1041100008D01B4B984205D01A4B984202D01A4B3C
:10412000984204D14FF68F731A404B881A43174BAD
:10413000984207D0164B984204D04FF6FF431A40DE
:10414000CB881A4302808B8883850B8803850A4BB2
:1041500098420BD0094B984208D00E4B984205D09C
:104160000D4B984202D00D4B984201D10B7A038639
:104170000123838270470000002C0140003401407D
:104180000004004000080040000C00400010004007
:10419000001400400040014000440140004801403C
:1041A0001CB52FA103C9CDE900012F4800680028E4
:1041B0004FD02D48006800280FDD2C480078401CA7
:1041C0002A4908700846007800F007000870264861
:1041D0000068401E244908600EE024480078401E14
:1041E000224908700846007800F0070008701E4851
:1041F0000068401C1C4908601C4909781DF8010032
:1042000000F001024FF480511948FEF7B3FB174943
:1042100009781DF80100C0F340024FF40051144822
:10422000FEF7A8FB114909781DF80100C0F38002D0
:104230004FF480410E48FEF79DFB0C4909781DF8AC
:104240000100C0F3C0024FF400410948FEF792FBA1
:1042500004E04FF470410648FEF78AFB1CBD0000E5
:104260000E0C0D090B03070640000020440000203F
:10427000000C014010B540F22551024800F0ACF8A6
:1042800010BD00000038014010B540F225511B4818
:1042900000F0A2F880B31A48007818B119480078E5
:1042A000012810D11548001D008828B31348001DAF
:1042B00000881549154A1268885414480068401C43
:1042C0001249086018E00D48001D00880E490F4A89
:1042D000126888540D48006820B901218807FFF74B
:1042E000E5FE04E000214FF08040FFF705FF07489E
:1042F0000068401C0549086010BD000000440040F3
:10430000240000202500002058010020200000206B
:1043100001F40072B2F5007F00D100BFCA430280F1
:10432000704721B1828942F40052828104E082897F
:104330004DF6FF731A4082817047000010B50446A5
:104340002048844209D101218803FEF719FD00218C
:104350004FF48040FEF714FD32E01B48844209D13F
:1043600001214804FEF7ECFC00214FF40030FEF779
:10437000E7FC25E01548844209D101218804FEF7B5
:10438000DFFC00214FF48020FEF7DAFC18E0104833
:10439000844209D10121C804FEF7D2FC00214FF468
:1043A0000020FEF7CDFC0BE00A48844208D1012131
:1043B0000805FEF7C5FC00214FF48010FEF7C0FC95
:1043C00010BD00000038014000440040004800409B
:1043D000004C00400050004070B50246002400230D
:1043E0000025002040F66A16B14200D100BFC1F39B
:1043F000421501F01F03012606FA03F3012D02D135
:104400009689334006E0022D02D1168A334001E03E
:10441000968A33400C12012606FA04F416883440BA
:1044200013B10CB1012000E0002070BDF0B50346CF
:10443000002400260025002040F66A17B94200D16A
:1044400000BF1846C1F3421401F01F06012707FA06
:1044500006F5012C01D10C3004E0022C01D1103002
:1044600000E014301AB107682F43076002E00768C4
:10447000AF430760F0BD00002DE9F04786B0054668
:104480000E460024A24600BFA1460027B08900B115
:1044900000BF2F462C8A4CF6FF700440F08804437E
:1044A0002C82AC894EF6F3100440B0883189084361
:1044B000718908430443AC81AC8A4FF6FF40044045
:1044C000B0890443AC8201A8FEF7C2FC1F488742B2
:1044D00002D1DDF810A001E0DDF80CA0A88900F4FD
:1044E000004040B10AEBCA0000EB0A1031684900F5
:1044F000B0FBF1F807E00AEBCA0000EB0A103168E4
:104500008900B0FBF1F86420B8FBF0F00401200949
:10451000642101FB1089A88900F4004040B13220D9
:1045200000EBC900B0FBF1F000F00700044308E025
:10453000322000EB09106421B0FBF1F000F00F0015
:1045400004432C8106B0BDE8F0870000003801402C
:1045500000BFFEE710B586B0044601218803FEF7D0
:10456000FFFB01210420FEF7FBFB4FF40070ADF8C8
:10457000140003208DF8160018208DF8170005A9E7
:104580001248FEF70DF94FF48060ADF814000420D6
:104590008DF8170005A90D48FEF702F901940020D7
:1045A000ADF80800ADF80A00ADF80C00ADF8100049
:1045B0000820ADF80E0001A90548FFF75DFF0121B5
:1045C0000348FFF7AEFE06B010BD00000008014032
:1045D0000038014010B586B004464FF4A060FEF7E5
:1045E0006BFB01214804FEF79BFB01210420FEF731
:1045F000B7FB2448FFF7A2FE0420ADF81400032007
:104600008DF8160018208DF8170005A91E48FEF732
:10461000C7F80820ADF8140004208DF8170005A98C
:104620001948FEF7BDF801940020ADF80800ADF878
:104630000A00ADF80C00ADF810000C20ADF80E002B
:1046400001A91048FFF718FF20210E48FFF760FE70
:10465000012240F225510B48FFF7E8FE26208DF895
:10466000000000208DF801008DF8020001208DF877
:1046700003006846FEF7E8FA01210248FFF751FE01
:1046800006B010BD00440040000801400FB4084BC4
:1046900010B504A902AA039800F0F0F8044602A994
:1046A000002000F082FC204610BC5DF814FB0000E6
:1046B000AB4F000837B514460846064B6A462146FC
:1046C00000F0DCF804466946002000F06EFC20464D
:1046D0003EBD0000AB4F000802E008C8121F08C131
:1046E000002AFAD170477047002001E001C1121F73
:1046F000002AFBD1704700002DE9FF5F82B0002146
:10470000DDE90430020DDDF840B0034318D044F673
:104710001050A2F2FF3242431514119801281FD005
:10472000A5EB0B00401C5FEA000A4FF000064E4F5D
:10473000DFF83891B046504615D5CAF1000413E0B1
:10474000119801244AA3012801D16FEA0B010298B4
:10475000119AC0E90031C0E9024206B0BDE8F09FFD
:10476000CBF10000DFE704460021404A491842EB44
:104770000450CDE9001012E0E00707D032463B4676
:1047800040464946FBF7E5FE8046894632463B46B1
:1047900010461946FBF7DDFE06460F466410002C56
:1047A000EAD1DDE90401DDE90023BAF1000F06DA00
:1047B000FBF7CFFE42464B46FBF7CBFE05E0FBF78F
:1047C0003AFF42464B46FBF736FF04460E460022B0
:1047D000284BFCF77BF903D84FF0FF30014607E088
:1047E0000022254B20463146FBF70CFEFCF756F91C
:1047F000102409E0002C0ADB0A220023FCF716F83B
:10480000039B30321A55641E50EA0102F2D1641C37
:10481000039AC4F111031444119A012A03D001220E
:1048200008430DD10AE0084304D000204FF0110BDB
:10483000119072E7A3EB0B056D1E0DE05B4504DDE7
:104840004FF0000205F1010504E003DA4FF0000229
:10485000A5F10105002AECD002981199C0E90231B6
:10486000C0E9004579E70000000014400000F03F77
:10487000300000000000F0430000E03F2DE9FF4F52
:1048800095B09B468946064600250FE2252877D13C
:1048900000242746F84A0121059400E0044316F855
:1048A000013F203B01FA03F01042F7D130782A286B
:1048B00011D06FF02F033078A0F13002092A16D8FA
:1048C000059A44F0020402EB820203EB4202104418
:1048D000761C0590EFE759F8042B0592002A03DABD
:1048E000504244F40054059044F00204761C3078A1
:1048F0002E2816D116F8010F44F004042A280DD0F2
:104900006FF02F023078A0F13003092B09D807EBA4
:10491000870302EB4303C718761CF3E759F8047BBF
:10492000761C30786C280FD006DC4C2817D068280D
:104930000DD06A2814D104E0742810D07A280FD141
:104940000DE044F400140AE044F4801401E044F45F
:1049500040147278824202D104F58014761C761CD1
:10496000307866280BD013DC582877D009DC002873
:1049700075D04528F6D04628F4D047281AD19DE1B5
:1049800018E0632835D0642879D0652812D195E1E4
:10499000702873D008DC6728F1D069286FD06E28A2
:1049A0000DD06F2806D1B5E073282CD0752875D0AE
:1049B000782874D05A46179990476D1C75E1C4F356
:1049C0000250022809D003280DD0D9F8001004287D
:1049D0000DD00D6009F1040967E1D9F80010EA175C
:1049E000C1E90052F6E7D9F800100D80F2E70D702A
:1049F000F0E719F8041B8DF8001000208DF8010075
:104A0000EA46012003E059F804AB4FF0FF3061079C
:104A10004FF0000102D40DE008F101018846B942CF
:104A20000FDA8045F8DB1AF808100029F4D108E005
:104A300008F1010188468142FADB1AF808100029C2
:104A4000F6D105985B46A0EB080721463846179A31
:104A500000F094FA284400EB080507E04DE029E156
:104A60000DE01AF8010B5A4617999047B8F1010862
:104A7000F7D25B4621463846179A13E142E00A22F4
:104A80000092C4F302524FF0000A022A08D059F8EB
:104A900004CB032A4FEAEC710AD00DE029E02AE0AA
:104AA00009F1070121F00702F2E802C1914609E08D
:104AB0000FFA8CFC4FEAEC71042A03D14FFA8CFCFC
:104AC0004FEAEC71002907DA0A460021DCF1000CFC
:104AD00061EB02012D2202E0220504D52B228DF884
:104AE0000420012203E0E20701D02022F7E79046EC
:104AF00059E00A2102E010220DE010214FF0000AD7
:104B000000910BE010224FF0000A44F00404082743
:104B1000009203E008224FF0000A0092C4F3025210
:104B2000022A05D059F804CB0021032A08D009E055
:104B300009F1070121F00702F2E802C1914605E000
:104B40001FFA8CFC042A01D10CF0FF0C4FF0000876
:104B5000220728D5702806D0009B83F0100353EA63
:104B60000A0305D00EE040228DF80420012208E05F
:104B70005CEA010206D030228DF804208DF8050091
:104B800002229046009B83F0080353EA0A030AD1ED
:104B90005CEA010201D1620705D530228DF80420BC
:104BA0004FF001087F1E582804D034A003900EA8AF
:104BB00002900DE036A0F9E753466046009AFBF7F5
:104BC00035FE84460398825C0298401E0290027073
:104BD0005CEA0100F0D1029806A9081A00F1200A47
:104BE000600702D524F4803400E00127574502DD38
:104BF000A7EB0A0000E0002000EB0A0100900598F6
:104C00004144401A0590E00306D45B462146179ABA
:104C1000059800F0B3F90544002706E001A85A46BC
:104C2000C05D179990476D1C7F1C4745F6DBE0037C
:104C30000CD55B462146179A059800F09FF905446C
:104C400004E030205A46179990476D1C0099481E81
:104C500000900029F5DC08E0029802995A46007895
:104C6000491C0291179990476D1CBAF10001AAF1F5
:104C7000010AF1DC65E1000009280100303132331E
:104C80003435363738396162636465660000000088
:104C90003031323334353637383941424344454672
:104CA0000000000000F058F90544761C3078002818
:104CB0007FF4ECAD19B02846BDE8F08F620700D450
:104CC000062709F1070222F0070CFCE80223E1465F
:104CD00003F000485FEA080C02D00FF2702C0DE0E0
:104CE0005FEA045C02D50FF2682C07E05FEAC47C3F
:104CF00002D00FF2602C01E0AFF2700C4FF0FF38E1
:104D000023F00043CDF850C065280CD006DC4528C0
:104D100009D046281DD047283DD13DE0662818D04F
:104D200067287ED138E00021112F01DB112000E03F
:104D3000781CCDE9000106A90EA8FFF7DDFCDDE92E
:104D40000F010E9A03910021009207F1010A0491CC
:104D50004DE04FF000400097CDE9011006A90EA8E4
:104D6000FFF7CAFCDDE90F0203920E9B11990022A6
:104D7000DDF80CA00093049211B9791C00EB010A34
:104D8000B7EB0A0004D4C0F1FF3007F1010A049028
:104D9000AAEB0700019044E0012F00DA012700216F
:104DA000112F01DD112000E03846CDE9000106A9F0
:104DB0000EA8FFF7A1FCDDE90F010E9A0391002177
:104DC00004910092BA4621070CD40399514500DAA8
:104DD0008A46BAF1010F05DD009AAAF10101515C82
:104DE000302908D0B84202DA10F1040F06DA0121A6
:104DF000CDE9011015E0AAF10101E9E7002805DC81
:104E0000049901440491AAEB000102E0411C5145C0
:104E100000DD8A460499401A401C01904FF0004082
:104E20000290200704D40198504501DBCDF804809E
:104E300000208DF84F0002980DF14F07B0F1004FA0
:104E400025D02B200E9002984FF0020800280CDA93
:104E5000404202902D200E9007E00A210298FBF7B5
:104E6000CFFC3031029007F8011DB8F10001A8F124
:104E70000108F2DC02980028EFD1791E0E98087024
:104E8000307800F0200040F0450007F8020D12A82D
:104E9000C01B00F107081498007800B1012000EB56
:104EA0000A01019801EBE07105984144401A401E47
:104EB0000590E00306D45B462146179A059800F05A
:104EC0005DF805441498007818B15A461799904730
:104ED0006D1CE00324D55B462146179A059800F027
:104EE0004DF805441CE00498002807DBDDE90301C8
:104EF000884203DD0098405C179901E01799302043
:104F00005A469047049805F10105401C0490019809
:104F1000401E019004D12E205A46179990476D1CCF
:104F2000BAF10001AAF1010ADDDC05E017F8010B76
:104F30005A46179990476D1CB8F10001A8F1010875
:104F4000F4DC5B462146179A0598ABE62D0000007D
:104F50002B000000200000002DE9F0410446002550
:104F60001E461746880404D405E039462020B04781
:104F70006D1C641EF9D52846BDE8F0812DE9F0418D
:104F8000044600251E469046C80301D5302700E0A0
:104F90002027880404D505E041463846B0476D1CFB
:104FA000641EF9D52846BDE8F0810A68531C0B60E1
:104FB0001070704700B5034603E04FF47A7000F0BC
:104FC00006F8181EA3F101018BB2F6D100BD00EB6B
:104FD000C001C9004FF0E02251610021916105211B
:104FE000116100BF4FF0E021096901F4803100290F
:104FF000F8D004214FF0E022116170472DE9F04113
:10500000FCF787FB80464046FBF79AFB06464FF0CD
:105010003332074BFBF70FFB0446FBF79EFB0549BA
:10502000C8810846C18904A000F052F8BDE8F081AB
:105030003333F33FE01C0020B9E2D5D5C7BFB6C873
:105040003A2025646C780D0A00000000FDF7A8FEE8
:10505000FDF7F4FDFBF720FF0020FDF79DFD4FF469
:10506000E130FFF777FA4FF4E130FFF7B3FA41F69A
:105070001F414FF4FA70FEF729FF41F61F4142F23B
:105080001070FEF799FF47214FF4FA60FEF7D8FF42
:10509000FEF768FCFDF792FCFDF7A4FDFDF78CFD23
:1050A000FDF75CFAFCF7C8F8FCF72EFBFCF794FE62
:1050B00000BFFCF7F9FB0028FBD1FDF799F8FDF7DD
:1050C0001AFE03E0FCF700FAFDF7FAFFFAE700002A
:1050D0000FB438B505A800901248009A0499FFF75C
:1050E000E9FA002000900F48FBF752F8054600BF90
:1050F0000D48008800F040000028F9D000240CE0A2
:105100000848005D0849091D088000BF064800885E
:1051100000F040000028F9D0641CAC42F0D338BC49
:105120005DF814FB58000020003801400FB438B57A
:1051300005A800901248009A0499FFF7BBFA0020D6
:1051400000900F48FBF724F8054600BF0D48008883
:1051500000F040000028F9D000240CE00848005D71
:105160000849091D088000BF0648008800F040007B
:105170000028F9D0641CAC42F0D338BC5DF814FBB5
:105180005805002000440040014601F00F010A29A3
:1051900002DA01F1300001E001F1570040B270473E
:1051A0002DE9F043BDB00646884615461F46DDF89A
:1051B00010910EB105B117B93DB0BDE8F083B9F15A
:1051C000400F00DDF8E7402116A8FAF7C4FF4021A0
:1051D00006A8FAF7C0FF4A46394616A8FAF7A2FF12
:1051E0004A46394606A8FAF79DFF00240CE016A8A7
:1051F000005D80F0360016A9085506A8005D80F015
:105200005C0006A90855641C402CF0DB26A800F0C1
:10521000AFF826A801F042FD402216A926A801F009
:1052200053FD4246314626A801F04EFD01A926A8AD
:1052300000F02AF826A800F09BF826A801F02EFD21
:10524000402206A926A801F03FFD142201A926A8A4
:1052500001F03AFD01A926A800F016F800240FE09D
:1052600001A9095D0811FFF78FFF05F8140001A9D6
:10527000085DFFF789FF012101EB44016854641CBC
:10528000142CEDDB00BF97E72DE9FC4704460D46E3
:105290002068400F616840EAC1062068C700300EF0
:1052A0008DF80000300C8DF80100300A8DF80200F6
:1052B000F0B28DF80300380E8DF80400380C8DF82C
:1052C0000500380A8DF80600F8B28DF8070020783E
:1052D00000F03F08B8F1380F02D2C8F1380001E001
:1052E000C8F1780081464A462049204601F0ECFC8E
:1052F00008226946204601F0E7FCA068000E2870ED
:10530000A068000C68702089000AA870207AE870F4
:10531000E068000E2871E068000C6871A089000A3E
:10532000A871207BE8712069000E28722069000CAA
:105330006872208A000AA872207CE8726069000EF8
:1053400028736069000C6873A08A000AA873207D26
:10535000E873A069000E2874A069000C6874208BA3
:10536000000AA874207EE874BDE8FC87446D00083C
:1053700010B504465C212046FAF7EDFE10BD000092
:105380002DE9F04390B007460E4696F800C04FEA6C
:105390000C6C96F801804CEA084C96F802804CEAB6
:1053A000082C96F803804CEA080CCDF800C096F85B
:1053B00004C04FEA0C6C96F805804CEA084C96F84D
:1053C00006804CEA082C96F807804CEA080CCDF8C9
:1053D00004C096F808C04FEA0C6C96F809804CEAB5
:1053E000084C96F80A804CEA082C96F80B804CEA98
:1053F000080CCDF808C096F80CC04FEA0C6C96F873
:105400000D804CEA084C96F80E804CEA082C96F871
:105410000F804CEA080CCDF80CC096F810C04FEA8B
:105420000C6C96F811804CEA084C96F812804CEA05
:10543000082C96F813804CEA080CCDF810C096F8AA
:1054400014C04FEA0C6C96F815804CEA084C96F89C
:1054500016804CEA082C96F817804CEA080CCDF818
:1054600014C096F818C04FEA0C6C96F819804CEAF4
:10547000084C96F81A804CEA082C96F81B804CEAE7
:10548000080CCDF818C096F81CC04FEA0C6C96F8C2
:105490001D804CEA084C96F81E804CEA082C96F8C1
:1054A0001F804CEA080CCDF81CC096F820C04FEACB
:1054B0000C6C96F821804CEA084C96F822804CEA55
:1054C000082C96F823804CEA080CCDF820C096F8FA
:1054D00024C04FEA0C6C96F825804CEA084C96F8EC
:1054E00026804CEA082C96F827804CEA080CCDF868
:1054F00024C096F828C04FEA0C6C96F829804CEA34
:10550000084C96F82A804CEA082C96F82B804CEA36
:10551000080CCDF828C096F82CC04FEA0C6C96F811
:105520002D804CEA084C96F82E804CEA082C96F810
:105530002F804CEA080CCDF82CC096F830C04FEA0A
:105540000C6C96F831804CEA084C96F832804CEAA4
:10555000082C96F833804CEA080CCDF830C096F849
:1055600034C04FEA0C6C96F835804CEA084C96F83B
:1055700036804CEA082C96F837804CEA080CCDF8B7
:1055800034C096F838C04FEA0C6C96F839804CEA73
:10559000084C96F83A804CEA082C96F83B804CEA86
:1055A000080CCDF838C096F83CC04FEA0C6C96F861
:1055B0003D804CEA084C96F83E804CEA082C96F860
:1055C0003F804CEA080CCDF83CC0B868F9683A69ED
:1055D0007B69BC694FEA401C4CEAD06882EA030C44
:1055E0000CEA010C8CEA030CC444DFF8F88FC444C5
:1055F000DDF80080C44464444FEA817C4CEA9101A8
:105600004FEA441C4CEAD46881EA020C0CEA000C14
:105610008CEA020CC444DFF8CC8FC444DDF804806B
:10562000C44463444FEA807C4CEA90004FEA431C38
:105630004CEAD36880EA010C0CEA040C8CEA010CF9
:10564000C444DFF8A08FC444DDF80880C444624439
:105650004FEA847C4CEA94044FEA421C4CEAD2683C
:1056600084EA000C0CEA030C8CEA000CC444DFF85A
:10567000748FC444DDF80C80C44461444FEA837CD9
:105680004CEA93034FEA411C4CEAD16883EA040CCC
:105690000CEA020C8CEA040CC444DFF8488FC444C2
:1056A000DDF81080C44460444FEA827C4CEA9202E8
:1056B0004FEA401C4CEAD06882EA030C0CEA010C69
:1056C0008CEA030CC444DFF81C8FC444DDF814805A
:1056D000C44464444FEA817C4CEA91014FEA441C83
:1056E0004CEAD46881EA020C0CEA000C8CEA020C49
:1056F000C444DFF8F08EC444DDF81880C444634429
:105700004FEA807C4CEA90004FEA431C4CEAD36895
:1057100080EA010C0CEA040C8CEA010CC444DFF8AA
:10572000C48EC444DDF81C80C44462444FEA847CC7
:105730004CEA94044FEA421C4CEAD26884EA000C1A
:105740000CEA030C8CEA000CC444DFF8988EC444C5
:10575000DDF82080C44461444FEA837C4CEA930323
:105760004FEA411C4CEAD16883EA040C0CEA020CB3
:105770008CEA040CC444DFF86C8EC444DDF8248049
:10578000C44460444FEA827C4CEA92024FEA401CD7
:105790004CEAD06882EA030C0CEA010C8CEA030C98
:1057A000C444DFF8408EC444DDF82880C444644417
:1057B0004FEA817C4CEA91014FEA441C4CEAD468E0
:1057C00081EA020C0CEA000C8CEA020CC444DFF8FB
:1057D000148EC444DDF82C80C44463444FEA807CBA
:1057E0004CEA90004FEA431C4CEAD36880EA010C73
:1057F0000CEA040C8CEA010CC444DFF8E88DC444C4
:10580000DDF83080C44462444FEA847C4CEA94045E
:105810004FEA421C4CEAD26884EA000C0CEA030C02
:105820008CEA000CC444DFF8BC8DC444DDF834803D
:10583000C44461444FEA837C4CEA93034FEA411C21
:105840004CEAD16883EA040C0CEA020C8CEA040CE2
:10585000C444DFF8908DC444DDF83880C44460440B
:105860004FEA827C4CEA92024FEA401C4CEAD06834
:1058700082EA030C0CEA010C8CEA030CC444DFF846
:10588000648DC444DDF83C80C44464444FEA817CA8
:105890004CEA9101DDF834C0DDF820808CEA080C78
:1058A000DDF808808CEA080CDDF800808CEA080539
:1058B0004FEA450C4CEAD5784FEA441C4CEAD469CF
:1058C00081EA020C0CEA000C8CEA020CCC44DFF8F2
:1058D000149DCC44C4446344CDF800804FEA807CDE
:1058E0004CEA9000DDF838C0DDF824808CEA080C22
:1058F000DDF80C808CEA080CDDF804808CEA0805E1
:105900004FEA450C4CEAD5784FEA431C4CEAD36980
:1059100080EA010C0CEA040C8CEA010CCC44DFF8A0
:10592000C49CCC44C4446244CDF804804FEA847CD7
:105930004CEA9404DDF83CC0DDF828808CEA080CC1
:10594000DDF810808CEA080CDDF808808CEA080588
:105950004FEA450C4CEAD5784FEA421C4CEAD26932
:1059600084EA000C0CEA030C8CEA000CCC44DFF84F
:10597000749CCC44C4446144CDF808804FEA837CD5
:105980004CEA9303DDF800C0DDF82C808CEA080CAB
:10599000DDF814808CEA080CDDF80C808CEA080530
:1059A0004FEA450C4CEAD5784FEA411C4CEAD169E4
:1059B00083EA040C0CEA020C8CEA040CCC44DFF8F9
:1059C000249CCC44C4446044CDF80C804FEA827CD3
:1059D0004CEA9202DDF804C0DDF830808CEA080C55
:1059E000DDF818808CEA080CDDF810808CEA0805D8
:1059F0004FEA450C4CEAD5784FEA401C4CEAD06996
:105A000081EA020C8CEA030CCC44DFF8DC9BCC442A
:105A1000C4446444CDF810804FEA817C4CEA910183
:105A2000DDF808C0DDF834808CEA080CDDF81C8055
:105A30008CEA080CDDF814808CEA08054FEA450C66
:105A40004CEAD5784FEA441C4CEAD46980EA010C50
:105A50008CEA020CCC44DFF8909BCC44C4446344F1
:105A6000CDF814804FEA807C4CEA9000DDF80CC041
:105A7000DDF838808CEA080CDDF820808CEA080C10
:105A8000DDF818808CEA08054FEA450C4CEAD57819
:105A90004FEA431C4CEAD36984EA000C8CEA010CFF
:105AA000CC44DFF8449BCC44C4446244CDF8188015
:105AB0004FEA847C4CEA9404DDF810C0DDF83C80A9
:105AC0008CEA080CDDF824808CEA080CDDF81C80D8
:105AD0008CEA08054FEA450C4CEAD5784FEA421C9F
